:100000000C949B1C0C94DB1C0C94DB1C0C94DB1CD4
:100010000C94DB1C0C94DB1C0C94DB1C0C94DB1C84
:100020000C94DB1C0C94DB1C0C94DB1C0C94DB1C74
:100030000C94DB1C0C94DB1C0C94DB1C0C94DB1C64
:100040000C94DB1C0C9455BF0C94DB1C0C94DB1C37
:100050000C94DB1C0C945ABC0C94DB1C0D94011CFE
:100060000C94DB1C0C941F680C9415680C94DB1C1E
:100070000C94DB1C0C94DB1C0C94DB1C0C94DB1C24
:100080000C94DB1C0C94DB1C0C94DB1C0C94DB1C14
:100090000C94DB1C0C94DB1C0C94DB1C0D944C1E90
:1000A0000C94DB1C0C94DB1C0C94DB1C0C94DB1CF4
:1000B0000C94DB1C0C94DB1C0C94DB1C0C94DB1CE4
:1000C0000C94DB1C0C94DB1C0C94DB1C0C94DB1CD4
:1000D0000C94DB1C0C94DB1C0C94DB1C0C94DB1CC4
:1000E0000C94DB1C084AD73B3BCE016E84BCBFFDA1
:1000F000C12F3D6C74319ABD56833DDA3D00C77FF8
:1001000011BED9E4BB4C3E916BAAAABE0000008090
:100110003F05A84CCDB2D44EB93836A9020C50B91F
:10012000918688083CA6AAAA2ABE000000803F004B
:100130000D940B1B0D94131B0D94E21A0D94EA1AE7
:100140000D94561B0D94B0000D944F000D94220099
:100150000D94681B0D94C71A0D9486000D94342DD0
:100160000D9406160D94CC1A0D940F1B0D94870058
:100170000D9496000D94FD1A0D94051B0D948400AA
:100180000D94DE1A0D94E61A0D945C000D94191B63
:100190000D941D1B0D945A1C0D94F71A0D94A90073
:1001A0000D9413370D94F31A0D94011B0D940A014D
:1001B0000D94DC000D9485000D94ED1A4E414E49CE
:1001C0004E495459494E46CDCCCC3D0AD7233C1715
:1001D000B7D13877CC2B329595E6241FB14F0A0062
:1001E0000020410000C84200401C4620BCBE4CCA52
:1001F0001B0E5AAEC59D7444455441494C00434FB3
:100200004D4D554E49434154494F4E004452595269
:10021000554E004552524F525300494E464F0045ED
:1002200043484F00444553434152474152204649B9
:100230004C414D454E544F00434152474152204698
:10024000494C414D454E544F0043414D4249415266
:100250002046494C414D454E544F004572726F72D5
:100260002077726974696E6720746F20454550521B
:100270004F4D210A00444554454E494441005072B7
:10028000696E7465722073746F7070656420647534
:100290006520746F206572726F72732E20466978C4
:1002A00020746865206572726F7220616E642075BB
:1002B0007365204D39393920746F2072657374610C
:1002C00072742E202854656D706572617475726544
:1002D0002069732072657365742E205365742069DC
:1002E00074206166746572207265737461727469DA
:1002F0006E67290A004E6F20436865636B73756DE6
:100300002077697468206C696E65206E756D626512
:10031000722C204C617374204C696E653A20004E3B
:100320006F20436865636B73756D2077697468200F
:100330006C696E65206E756D6265722C204C617300
:1003400074204C696E653A2000636865636B737551
:100350006D206D69736D617463682C204C617374DA
:10036000204C696E653A20004C696E65204E756DB3
:10037000626572206973206E6F74204C6173742003
:100380004C696E65204E756D6265722B312C204C68
:10039000617374204C696E653A20004D3131300034
:1003A00053657269616C20737461747573206D6933
:1003B000736D617463680A00534420726561642040
:1003C0006572726F720A004B494C4C2062757474EE
:1003D0006F6E2F70696E0A002121204B494C4C2012
:1003E0006361757365642062792000746F6F206D9E
:1003F00075636820696E6163746976652074696DE0
:1004000065202D2063757272656E7420636F6D6D4B
:10041000616E643A20002121204B494C4C206361DD
:1004200075736564206279200053442F464420721E
:100430006574697261646F0053442F464420696E8D
:100440007365727461646F00627573793A207061CC
:100450007573656420666F7220696E7075740A002A
:10046000627573793A2070617573656420666F7286
:1004700020757365720A00627573793A2070726F25
:1004800063657373696E670A00506F7220666176E8
:100490006F722C207265696E6963696500494D5001
:1004A0005245534F524120444554454E4944410022
:1004B00025533A202553004D554552544100507262
:1004C000696E7465722068616C7465642E206B6956
:1004D0006C6C28292063616C6C6564210A0065637B
:1004E000686F3A004572726F723A00486F74656EB9
:1004F0006420746F6F20636F6C640A0050726573C0
:100500007320627574746F6E20746F2072657375DA
:100510006D650A00496E736572742066696C616D61
:10052000656E7420616E64207072657373206275ED
:1005300074746F6E0A0052656865617420446F6E52
:100540006500526563616C656E74616E646F2E2E1A
:100550002E00507265737320627574746F6E207410
:100560006F2068656174206E6F7A7A6C650A004846
:100570006561642063616E6E6F74206265207061D6
:10058000726B656400506F7765724F66660A003E55
:100590003E3E003C3C3C002020002020526164692B
:1005A00075733A00547A0054790054780020205230
:1005B00061646975733A00457A00457900457800B1
:1005C0002E4865696768743A007879007A7800790E
:1005D0007A00207A0020790020780063002E202005
:1005E000202000253033692E7800302E25303369E5
:1005F000002073643A00737464206465763A0045A1
:100600006E64204452592D52554E00737464206418
:1006100065763A004E6F20636F6E76657267656E21
:10062000636500497465726174696F6E203A2025B4
:1006300030326900536176652077697468204D35E2
:10064000303020616E642F6F7220636F7079207478
:100650006F20436F6E66696775726174696F6E2E85
:10066000680A00253033692E7800302E2530336932
:100670000043616C6962726174696F6E2073643AE1
:1006800000737464206465763A0043616C69627239
:100690006174696F6E204F4B00436F7272656374B3
:1006A0002064656C74612073657474696E6773206F
:1006B00077697468204D36363520616E64204D367A
:1006C00036360A0020284452592D52554E29002012
:1006D0006174207261646975733A00436865636B85
:1006E000696E672E2E2E204143004733332041751B
:1006F000746F2043616C6962726174650A003F28FF
:1007000056296572626F7365206C6576656C206929
:100710006D706C61757369626C652028302D3329AA
:100720002E0A003F2846296F72636520697465723E
:100730006174696F6E20696D706C61757369626C4C
:10074000652028302D3330292E0A003F28432961A7
:100750006C6962726174696F6E207072656369732F
:10076000696F6E20696D706C61757369626C65206C
:10077000283E3D30292E0A003F2850296F696E74AB
:100780007320696D706C61757369626C65202830C7
:100790002D3130292E0A0020430020420020410044
:1007A00020530020480020520020204D36363520AE
:1007B0004C0044656C746120284C3C646961676F2F
:1007C0006E616C2D726F643E20523C72616469757B
:1007D000733E20483C6865696768743E20533C73EB
:1007E00065672D7065722D7365633E2058595A3CBC
:1007F000746F7765722D616E676C652D7472696DAB
:100800003E204142433C726F642D7472696D3E29F3
:100810000020204D363636205800456E6473746FC4
:10082000702061646A7573746D656E740020440095
:1008300020204D32303020530020284469736162FB
:100840006C6564293A0046696C616D656E7420734D
:10085000657474696E67730020204D323031205802
:10086000004D617820416363656C65726174696FE6
:100870006E2028756E6974732F7332290020204D05
:100880003230332058004D617820666565647261AE
:100890007465732028756E6974732F732900205254
:1008A0000020204D323034205000416363656C6578
:1008B000726174696F6E2028756E6974732F73325C
:1008C000292028503C7072696E742D616363656CD9
:1008D0003E20523C726574726163742D616363657E
:1008E0006C3E20543C74726176656C2D6163636567
:1008F0006C3E290020580020540020530020204D39
:10090000323035204200416476616E636564202890
:10091000423C6D696E5F7365676D656E745F746987
:100920006D655F75733E20533C6D696E5F666565EE
:1009300064726174653E20543C6D696E5F747261CF
:1009400076656C5F66656564726174653E20583CCF
:100950006D61785F6A65726B3E20593C6D61785FAE
:100960006A65726B3E205A3C6D61785F6A65726B96
:100970003E20453C6D61785F6A65726B3E290020C0
:10098000440020490020204D333031205000486F72
:1009900074656E64205049440020440020490020C2
:1009A000204D3330342050004265642050494400CB
:1009B000203B0020550020204D363033204C00468F
:1009C000696C616D656E74206C6F61642F756E6CFF
:1009D0006F61640020496E76616C6964206578748B
:1009E0007275646572200047322F4733206261645C
:1009F00020706172616D65746572730A0052657072
:100A00006F736F2E2E2E0050726F62653A204E4F1C
:100A10004E450A004D616368696E652054797065C2
:100A20003A2044656C74610A003E20686F6D696EFF
:100A300067206E6F74206E65656465642C20736B2F
:100A400069700A004732380050756C73617220700B
:100A5000617261205265616E756461720053696EE6
:100A6000206D6F76696D69656E746F00456E6420E8
:100A700066696C65206C6973740A00426567696E0B
:100A80002066696C65206C6973740A004E6F206D76
:100A9000656469610A00286E6F2066696C652900CB
:100AA00043757272656E742066696C653A20002E1B
:100AB0000A0044656C6574696F6E206661696C65D7
:100AC000642C2046696C653A200046696C65206498
:100AD000656C657465643A005072696E742074695F
:100AE0006D653A20000A53746174733A2046696C4C
:100AF000616D656E7420757365643A20002C204C1E
:100B00006F6E67657374206A6F623A2000546F7469
:100B1000616C2074696D653A200053746174733A96
:100B200020002C204661696C65643A20002C204628
:100B3000696E69736865643A20005072696E7473F7
:100B40003A200053746174733A20006F6B006F6633
:100B500066001F021A0213020C02FE01F70144454F
:100B60004255473A004D3131322053687574646FF5
:100B7000776E004D31313320530050533A300A0024
:100B800050533A310A00434650203820534D4154C7
:100B9000412056312E30204F46462E002F2F004D3B
:100BA00031343520533C696E6465783E206F75742E
:100BB000206F662072616E67652028302D31290A0A
:100BC000004F4646004F4E003B200020204D6178EC
:100BD0003A2000200020204D696E3A2000203B2062
:100BE0000020204D323131205300250A0046523A70
:100BF0000020466C6F773A200064697300656E00D0
:100C000043290A0061626C656420286D696E207456
:100C1000656D702000436F6C642065787472756434
:100C20006573206172652000454550524F4D204F3D
:100C30004B0A003F4D363636206F66667365747317
:100C4000206D757374206265203C3D20300A005D84
:100C5000203D200064656C74615F656E6473746F21
:100C6000705F61646A5B004D363636004D38340083
:100C7000446F6E65207072696E74696E6720666974
:100C80006C650A004D3737004D333100496E76618F
:100C90006C69642065787472756465720A00290A4B
:100CA000002E2E2E280054004361703A00434F4E10
:100CB0004649475F4558504F5254004D45415450A6
:100CC00041434B00434F4F4C45525F54454D5045B7
:100CD000524154555245004348414D4245525F549C
:100CE000454D504552415455524500424142595399
:100CF00054455050494E470041524353004D4F54C4
:100D0000494F4E5F4D4F44455300544845524D4165
:100D10004C5F50524F54454354494F4E0045585430
:100D2000454E4445445F4D323000435553544F4D7A
:100D30005F4649524D574152455F55504C4F4144D3
:100D4000004C464E5F5752495445004C4F4E475F4A
:100D500046494C454E414D45004155544F52455032
:100D60004F52545F53445F535441545553005344BE
:100D70005F575249544500524550454154004D5526
:100D80004C54495F564F4C554D45005344434152D6
:100D9000440050524F4D50545F535550504F525491
:100DA00000484F53545F414354494F4E5F434F4DAA
:100DB0004D414E445300454D455247454E43595FC2
:100DC00050415253455200434153455F4C494748B7
:100DD000545F4252494748544E45535300544F477D
:100DE000474C455F4C494748545300534F4654576E
:100DF0004152455F504F574552004255494C445F60
:100E000050455243454E54004C4556454C494E477B
:100E10005F44415441005A5F50524F424500525581
:100E20004E4F5554004155544F4C4556454C00507B
:100E300052494E545F4A4F420050524F4752455319
:100E400053004155544F5245504F52545F54454DF5
:100E500050004155544F5245504F52545F504F53DC
:100E600000564F4C554D455452494300454550524C
:100E70004F4D0042494E4152595F46494C455F54DF
:100E800052414E534645520053455249414C5F58DA
:100E90004F4E5F584F4646004649524D57415245C6
:100EA0005F4E414D453A4D61726C696E20322E3174
:100EB0002E322E31202853657020203620323032D9
:100EC000342031363A33363A31372920534F555290
:100ED00043455F434F44455F55524C3A67697468D8
:100EE00075622E636F6D2F4D61726C696E4669720B
:100EF0006D776172652F4D61726C696E2050524F33
:100F0000544F434F4C5F56455253494F4E3A312E42
:100F100030204D414348494E455F545950453A436E
:100F20004650203820534D4154412056312E302018
:100F300045585452554445525F434F554E543A31EB
:100F400020555549443A63656465326132662D34F3
:100F50003161322D343734382D396231322D6335D9
:100F60003563363266333637666600256973002589
:100F7000696D20256973002569682025696D202524
:100F8000697300256964202569682025696D20251D
:100F90006973002569792025696420256968202501
:100FA000696D2025697300456E667269616E646FB4
:100FB0002E2E2E0045312025530020573A00456E35
:100FC000667269616E646F2043616D612E2E2E0022
:100FD00043616C656E74616E646F2043616D612E58
:100FE0002E2E0023646566696E6520444546415592
:100FF0004C545F00626564004B6420004B69200024
:101000004B7020002066696E69736865642120500A
:10101000757420746865206C617374204B702C208B
:101020004B6920616E64204B6420636F6E73746142
:101030006E74732066726F6D2062656C6F772069C5
:101040006E746F20436F6E66696775726174696F45
:101050006E2E680A00504944204175746F74756E95
:101060006500206661696C6564212074696D656F37
:1010700075740A00504944204175746F74756E652B
:1010800000206661696C6564212054656D7065722D
:10109000617475726520746F6F20686967680A00F3
:1010A000504944204175746F74756E650050494411
:1010B000204379636C65730025532025692F2569CA
:1010C00000204B643A2000204B693A2000204B70EE
:1010D0003A200020436C61737369632050494420B7
:1010E0000A00204E6F206F76657273686F6F740A06
:1010F000002054753A2000204B753A2000206D6185
:10110000783A2000206D696E3A200020643A200071
:1011100020626961733A200043616C656E74616E90
:10112000646F2E2E2E002073746172740A00504971
:1011300044204175746F74756E6500206661696C3A
:101140006564212054656D706572617475726520E7
:10115000746F6F20686967680A00504944204175C0
:10116000746F74756E6500504944204175746F2D1D
:10117000616A7573746500206661696C656421201D
:10118000426164206865617465722069640A005078
:101190004944204175746F74756E6500A1000000AC
:1011A0006900A20000006300B00000000900C10057
:1011B00000004100C20000004100C30000004100E7
:1011C000C40000004100C50000004100C60000004E
:1011D0004145C70000004300C80000004500C900A9
:1011E00000004500CD0000004900D10000004E0085
:1011F000D50000004F00D60000004F00D7000000CF
:101200007800DC0000005500DD0000005900E0001F
:1012100000006100E10000006100E20000006100E8
:10122000E30000006100E40000006100E500000050
:101230006100E60000006165E70000006300E8006F
:1012400000006500E90000006500EA00000065009C
:10125000EB0000006500EC0000006900ED000000FC
:101260006900EE0000006900EF0000006900F10075
:1012700000006E00F20000006F00F30000006F003D
:10128000F40000006F00F50000006F00F6000000A1
:101290006F00F80000006F00F90000007500FA0010
:1012A00000007500FB0000007500FC0000007500E8
:1012B000FD0000007900FF0000007900040100003B
:1012C0004100050100006100060100004300070124
:1012D000000063000C01000043000D0100006300EA
:1012E0000E01000044000F01000064001101000025
:1012F00064001901000065001A01000045001B018F
:10130000000065001F010000670030010000490077
:10131000310100006900410100004C004201000061
:101320006C00430100004E00440100006E004801C3
:1013300000006E00580100005200590100007200C8
:101340005A01000053005B01000073005F010000C0
:10135000730060010000530061010000730065012B
:10136000000074006F01000075007C0100007A002D
:101370007D0100005A007E0100007A009201000009
:101380006600E30200007800222000002E001E21EB
:101390000000507822210000544D902100003C2D87
:1013A000922100002D3EB02100000300BB2100006F
:1013B00004003C2200007E00482200007E3D6022A6
:1013C0000000213D612200003D00642200003C3D00
:1013D000652200003E3DF12300000700A030000020
:1013E0003D0021F301000200C2F401000500A2004B
:1013F0000000EC00B0000000DF00E4000000E100AD
:10140000F6000000EF00F7000000FD00FC00000007
:10141000F500E3020000EB0087030000A5008F0346
:101420000000F40098030000F2009E030000E300B7
:10143000A3030000F600A9030000F400AC030000C1
:10144000E000AD030000E300B1030000E000B203E0
:101450000000E200B5030000E300B8030000F20062
:10146000BC030000E400BE030000E300C003000072
:10147000F700C1030000E600C3030000E50090216F
:1014800000007F00922100007E001A220000E80088
:101490001E220000F30088250000FF00023000003B
:1014A000A1000C300000A2000D300000A3009B3012
:1014B0000000DE009C300000DF00A03000003D0096
:1014C000A1300000A700A2300000B100A33000004E
:1014D000A800A4300000B200A5300000A900A6308A
:1014E0000000B300A7300000AA00A8300000B4003C
:1014F000A9300000AB00AA300000B500AB300000FE
:10150000B600AC300000B6DEAD300000B700AE3043
:101510000000B7DEAF300000B800B0300000B8DE29
:10152000B1300000B900B2300000B9DEB3300000C5
:10153000BA00B4300000BADEB5300000BB00B630EF
:101540000000BBDEB7300000BC00B8300000BCDEDD
:10155000B9300000BD00BA300000BDDEBB30000075
:10156000BE00BC300000BEDEBD300000BF00BE309B
:101570000000BFDEBF300000C000C0300000C0DE91
:10158000C1300000C100C2300000C1DEC330000025
:10159000AF00C4300000C200C5300000C2DEC6305B
:1015A0000000C300C7300000C3DEC8300000C40024
:1015B000C9300000C4DECA300000C500CB300000D6
:1015C000C600CC300000C700CD300000C800CE30CF
:1015D0000000C900CF300000CA00D0300000CADED1
:1015E000D1300000CADFD2300000CB00D330000081
:1015F000CBDED4300000CBDFD5300000CC00D630BD
:101600000000CCDED7300000CCDFD8300000CD00A9
:10161000D9300000CDDEDA300000CDDFDB30000055
:10162000CE00DC300000CEDEDD300000CEDFDE306C
:101630000000CF00DF300000D000E0300000D1001B
:10164000E1300000D200E2300000D300E3300000BF
:10165000AC00E4300000D400E5300000AD00E6301E
:101660000000D500E7300000AE00E8300000D600F2
:10167000E9300000D700EA300000D800EB3000006D
:10168000D900EC300000DA00ED300000DB00EF3074
:101690000000DC00F2300000A600F3300000DD00A6
:1016A000F4300000B3DEF7300000DCDEFA3000007A
:1016B000A6DEFB300000A500FC300000B000FD30CD
:1016C0000000A400074E0000FB0086510000FC0053
:1016D00043530000FA0064FF0000A40065FF00000F
:1016E000A50066FF0000A60067FF0000A70068FFD6
:1016F0000000A80069FF0000A9006AFF0000AA001E
:101700006BFF0000AB006CFF0000AC006DFF000041
:10171000AD006EFF0000AE006FFF0000AF0070FF75
:101720000000B00071FF0000B10072FF0000B200C5
:1017300073FF0000B30074FF0000B40075FF0000E9
:10174000B50076FF0000B60077FF0000B70078FF15
:101750000000B80079FF0000B9007AFF0000BA006D
:101760007BFF0000BB007CFF0000BC007DFF000091
:10177000BD007EFF0000BE007FFF0000BF0080FFB5
:101780000000C00081FF0000C10082FF0000C20015
:1017900083FF0000C30084FF0000C40085FF000039
:1017A000C50086FF0000C60087FF0000C70088FF55
:1017B0000000C80089FF0000C9008AFF0000CA00BD
:1017C0008BFF0000CB008CFF0000CC008DFF0000E1
:1017D000CD008EFF0000CE008FFF0000CF0090FFF5
:1017E0000000D00091FF0000D10092FF0000D20065
:1017F00093FF0000D30094FF0000D40095FF000089
:10180000D50096FF0000D60097FF0000D70098FF94
:101810000000D80099FF0000D9009AFF0000DA000C
:101820009BFF0000DB009CFF0000DC009DFF000030
:10183000DD009EFF0000DE009FFF0000DF00E5FFEF
:1018400000005C00001C1F11111F00000006191889
:1018500003130C00040E1F041C00000000101010E5
:101860001010100000141414141414000015151591
:1018700015151500000E1315110E00001C10181779
:1018800005060500040A0A0A0A11110E0C12120CB0
:1018900000000000001F1511151F000000000000CF
:1018A000010204040000001C1C0C040404020100DA
:1018B00000000000040810000000000003002D2DAF
:1018C0002D2D2D2D007C4D61726C696E7C00010008
:1018D0002D2D2D2D2D2D002500503A002568753A0F
:1018E00025303268750025303268753A2530326807
:1018F0007500253032687527253032687500200064
:101900002000200020003A003A0043616D6100523F
:101910006563696E746F0045002000200020002080
:101920000025002020202020202000200020202032
:101930002000496D7072657369C3B36E2063616E78
:1019400063656C616461004D3831004D3235205063
:101950000A4D32340050617573696E672E2E2E0069
:101960004D3234003F0049676E6F72650052656901
:101970006E696369617200496E696369616C697A55
:10198000617220454550524F4D004D6F7669656E2E
:10199000646F2E2E2E004361726761206D6D0044CE
:1019A00065736361726761206D6D004469C3A16DE9
:1019B0006574726F2046696C2E004520656E206D3F
:1019C0006DC2B3004D333033205531204525692099
:1019D00053256900504944204175746F2D616A7523
:1019E000737465202A00200220466163746F7200C0
:1019F0002002204D6178002002204D696E00417068
:101A00006700456E630054656D702E204175746FDC
:101A10006D2E0056656C2E207669616A65206D69B1
:101A20006E00566D696E004D6178204020537065E0
:101A30006564004163656C2E206D617845004163EB
:101A4000656C2E206D617840004163656C2E2056D8
:101A500069616A65004163656C2E2072657472610C
:101A6000632E004163656C6572616369C3B36E0088
:101A70004D61782040204A65726B00402070617390
:101A80006F732F6D6D00416A757374657320617695
:101A9000616E7A61646F73003F0043616E63656CD1
:101AA000617200496E696369617200496E696369B8
:101AB000616C697A617220454550524F4D0046690C
:101AC0006C616D656E746F0054656D7065726174E4
:101AD000757261005061736F732F6D6D004A65728E
:101AE0006B00416363656C6572616369C3B36E00CB
:101AF0004D61782056656C6F636964616400436F63
:101B00006E6669677572616369C3B36E0043616D28
:101B10006100426F7175696C6C610056656E746925
:101B20006C61646F7200436F6E66696775726163A2
:101B300069C3B36E00526573742E2066C3A16272CE
:101B40006963610043617267617220454550524F7D
:101B50004D004775617264617220454550524F4D8A
:101B60000041706700456E6300536F756E640050EE
:101B7000726563616C2E202420416A757374650060
:101B800043616C696272616369C3B36E2044656CC2
:101B9000746100416A7573746573206176616E7A51
:101BA00061646F73004D656EC3BA207072696E63B5
:101BB0006970616C004F726967656E2058595A00F0
:101BC000426172726120446961676F6E616C00549A
:101BD0007A00547900547800526164696F00457A44
:101BE00000457900457800416C747572610043616D
:101BF0006C696272616369C3B36E2044656C746121
:101C00000043616C69627261722043656E74726F29
:101C10000043616C6962726172205A0043616C69B1
:101C20006272617220590043616C69627261722054
:101C300058004C6C6576617220616C206F72696728
:101C4000656E00436F6E6669677572616369C3B3E1
:101C50006E2044656C746100436172676172204557
:101C60004550524F4D004775617264617220454581
:101C700050524F4D004175746F2043616C69627220
:101C8000616369C3B36E00473333004D656EC3BAF9
:101C9000207072696E636970616C004D373032205C
:101CA000542564004D3630302042302054256400E5
:101CB0004D373032203B2564004D373031205425DC
:101CC00064004D373032004D373031004D36303002
:101CD000204230004D656EC3BA207072696E636930
:101CE00070616C00436F6E74696E75617220696D0E
:101CF000702E00507572676172206DC3A173004F22
:101D000050432E205245494E4943494F3A00494DD0
:101D10005052455349C3934E20504155534144417D
:101D20000020002000202020002F002020426F7182
:101D300075696C6C613A20004572723A20454550D5
:101D4000524F4D20436F7272757074004572723A33
:101D500020454550524F4D20435243004572723A40
:101D600020454550524F4D2054616D61C3B16F0005
:101D70004572723A205665727369C3B36E20454549
:101D800050524F4D004170617263616E646F2E2E30
:101D90002E0000004573706572616E646F20706183
:101DA000726100696E696369617220656C206361AC
:101DB0006D62696F0064652066696C616D656E7443
:101DC0006F004573706572652070617261006C69A7
:101DD000626572617220656C2066696C616D656E0A
:101DE000746F000043616C656E74616E646F206295
:101DF0006F7175696C6C61004573706572652070F8
:101E00006F72206661766F722E2E2E000050756CF8
:101E1000736520656C20626F74C3B36E207061724D
:101E2000610063616C656E746172206C6120626F29
:101E30007175696C6C610000496E73657274652020
:101E4000656C2066696C616D656E746F00792070D9
:101E5000756C736520656C20626F74C3B36E00701F
:101E600061726120636F6E74696E7561722E2E2EC1
:101E70000045737065726520706172610063617204
:101E800067617220656C2066696C616D656E746F48
:101E9000000050756C73617220656C20626F74C3B2
:101EA000B36E2070617261007265616E75646172FB
:101EB00020696D7072657369C3B36E0000457370FD
:101EC0006572616E646F20696D707265736F7261A7
:101ED0000070617261207265616E756461722E2E90
:101EE0002E0000457370657265207061726100702C
:101EF000757267617220656C2066696C616D656ED4
:101F0000746F00003E2000256C642E25696D00541E
:101F10006F74616C20457874727569646F003E203F
:101F200000496D7072657369C3B36E206DC3A17390
:101F3000206C61726761003E20005469656D706FAE
:101F400020746F74616C20646520696D702E00438D
:101F50006F6D706C657461646173003A2000436F4B
:101F60006E742E20646520696D7072657369C3B3E9
:101F70006E003A20003131350035004245443A20A8
:101F80004550434F53203130304B005669672E2067
:101F9000467567612054C3A9726D2E3A204F4E00DA
:101FA00054656D702E204DC3A178696D6100323685
:101FB000300054656D702E204DC3AD6E696D6100AB
:101FC000350045313A204550434F53203130304B96
:101FD00000462E20416C696D656E742E004F56458B
:101FE000524C4F52440050726F746F636F6C6F00AD
:101FF000312E300042617564696F730032353030C4
:102000003030004D4B532047454E204C00457874EE
:102010007275736F7265730031006D61726C696EF9
:1020200066772E6F726700434650203820534D412B
:1020300054412056312E3000323032332D30352D80
:10204000313600322E312E322E31004D61726C69E4
:102050006E004573746164C3AD737469636173200A
:10206000496D702E005465726D6973746F7265737B
:1020700000496E666F2E20436F6E74726F6C6164E0
:102080006F7200496E666F2E20496D707265736FB6
:102090007261004D656EC3BA207072696E636970BB
:1020A000616C0056696F6C65746100C38D6E646904
:1020B000676F00417A756C00566572646500416D0A
:1020C0006172696C6C6F004E6172616E6A61005280
:1020D0006F6A6F00426C616E636F00496E74656E6B
:1020E000736964616420417A756C00496E74656E31
:1020F000736964616420566572646500496E746535
:102100006E736964616420526F6A6F00436F6E740E
:10211000726F6C204C454400436F6C6F7220706589
:1021200072736F6E616C697A61646F00436F6C6F7C
:102130007220707265646566696E69646F00506FC5
:1021400072206465666563746F0041706700456E58
:1021500063004C454453004D656EC3BA20707269EC
:102160006E636970616C003F00417472C3A17300BB
:1021700050617261720043616D62696172206669CB
:102180006C616D656E746F0053442F4644206E6F12
:102190002070726573656E746500496D7072696D4B
:1021A0002E2064657364652053442F4644004361C8
:1021B0006D626961722053442F4644004D323100F4
:1021C000456E63656E646572204675656E74650064
:1021D0004D383000417061676172204675656E74DC
:1021E00065004C45445300496E666F2E20496D7062
:1021F0007265736F726100436F6E666967757261B5
:102200006369C3B36E0054656D70657261747572F5
:1022100061004D6F76696D69656E746F005265611E
:102220006E7564617220696D7072657369C3B36E97
:1022300000416A757374617200446574656E6572FD
:1022400020696D7072657369C3B36E0050617573F8
:10225000617220696D7072657369C3B36E005061FD
:102260006E74616C6C6120646520496E662E003F5F
:1022700000496E696369617220696D707265736986
:10228000C3B36E0043616E63656C617200496D702B
:1022900072696D69720043616E6E6F7420656E7451
:1022A0006572207375626469723A200005202E2ED3
:1022B000004D656EC3BA207072696E636970616C9F
:1022C000002100486F74656E64206D757920667218
:1022D000696F00417472C3A1730050726F636564CB
:1022E0006572004578747275736F72004C69627222
:1022F000652058590041706700456E6300536F6652
:102300007420456E6473746F7073004D6F76696DE1
:1023100069656E746F00417061676172206D6F74E2
:102320006F726573004D3834004C6C6576617220B5
:10233000616C206F726967656E00473238004D65C9
:102340006EC3BA207072696E636970616C005072FE
:102350006563616C2E20242043616D6100507265BD
:1023600063616C2E2024204675736F720054656D76
:10237000706572617475726100456E667269617232
:102380000050726563616C2E20240056656E74697E
:102390006C61646F720043616D6100426F717569B9
:1023A0006C6C61004D656EC3BA207072696E6369B2
:1023B00070616C00466C756A6F0056656E74696C6E
:1023C00061646F720043616D6100426F7175696C89
:1023D0006C610056656C6F6369646164004D656E85
:1023E000C3BA207072696E636970616C00290A005B
:1023F0003C3C3C207365745F617869735F69735F0F
:1024000061745F686F6D652800203A200A00202003
:1024100063757272656E745F706F736974696F6EE5
:102420003D0000000000000000009AB98B43290A1B
:10243000003E3E3E207365745F617869735F697327
:102440005F61745F686F6D652800686F6D655F64BC
:10245000656C74610049722061206F726967656EF6
:102460002046616C6C61646F006F70656E00545241
:1024700049474745524544003A20007A5F6D6178EC
:10248000007A5F6D696E00795F6D617800785F6DCD
:102490006178005265706F7274696E6720656E6452
:1024A00073746F70207374617475730A00203A201E
:1024B00073796E635F706C616E5F706F736974695E
:1024C0006F6E0A00202063757272656E745F706FA4
:1024D000736974696F6E3D00203A20707265706197
:1024E00072655F666173745F6D6F76655F746F5F51
:1024F00064657374696E6174696F6E0A002020648C
:10250000657374696E6174696F6E3D00203A207A5C
:10251000206C6F776572206D6F76650A00202063EE
:10252000757272656E745F706F736974696F6E3DFA
:1025300000203A207879206D6F76650A00202063AC
:10254000757272656E745F706F736974696F6E3DDA
:1025500000203A207A207261697365206D6F76657C
:102560000A00202063757272656E745F706F736904
:1025700074696F6E3D00203A207A6F6E6520626F3D
:1025800072646572206D6F76650A00202063757233
:1025900072656E745F706F736974696F6E3D002051
:1025A0003A2064616E676572207A6F6E65206D6F88
:1025B00076650A00202063757272656E745F706FB5
:1025C000736974696F6E3D00203A206465737469A5
:1025D0006E6174696F6E203D2063757272656E74F2
:1025E0005F706F736974696F6E0A00202064657391
:1025F00074696E6174696F6E3D003E2000646F5FA8
:10260000626C6F636B696E675F6D6F76655F746F29
:1026100000206D61783A00206D696E3A004178695A
:102620007320000000AA420000AA429AB98B43001E
:1026300000AAC20000AAC20000000020746F6F2030
:102640006C6F6E6720657874727573696F6E207039
:10265000726576656E7465640A0020636F6C642031
:10266000657874727573696F6E2070726576656EC9
:102670007465640A005761726E696E673A20486F2C
:102680006D696E672042756D702044697669736F5D
:1026900072203C20310A000A0A0A290A003C3C3C0C
:1026A00020686F6D6561786973280061646A4469A8
:1026B0007374616E63653A006D6D0A0052652D6238
:1026C000756D703A20006D6D0A004D6F7665204182
:1026D0007761793A20006D6D0A00486F6D6520467C
:1026E0006173743A200000002A4300002A439AB91B
:1026F0008B430000A0400000A0400000A040290A39
:10270000003E3E3E20686F6D656178697328005316
:10271000657474696E67732053746F726564002901
:102720000A002062797465733B2063726320005352
:10273000657474696E67732053746F7265642028C2
:1027400000454550524F4D20496E697469616C696E
:102750007A65640A0048617264636F64656420444A
:10276000656661756C742053657474696E67732057
:102770004C6F616465640020286D6D29002046005F
:1027800020420020480020204D3134352053004D98
:102790006174657269616C20686561747570207020
:1027A0006172616D65746572730020204D3134393A
:1027B0002043203B20556E69747320696E20436569
:1027C0006C736975730A0054656D70657261747518
:1027D000726520556E697473002020473231203BAA
:1027E000004C696E65617220556E697473004545D1
:1027F00050524F4D206461746173697A652065722F
:10280000726F722E0A00202863616C63756C6174AC
:10281000656429210A0020213D2000454550524F82
:102820004D20435243206D69736D61746368202DA0
:10283000202873746F726564292000454550524FFB
:102840004D20436F72727570740A002053697A6567
:102850003A2000496E6465783A2000290A00206217
:10286000797465733B2063726320002073746F7208
:1028700065642073657474696E6773207265747221
:1028800069657665642028000000C8420000C842DF
:102890000000C8420000C841AEA21D43AEA21D43C5
:1028A000AEA21D436D170A43E8030000E8030000D1
:1028B000E8030000B80B0000204D61726C696E3DAA
:1028C000563838290A00454550524F4D20766572DA
:1028D00073696F6E206D69736D617463682028453C
:1028E0004550524F4D3D00433A00423A0020436F5D
:1028F000756E7420413A0043616D610045310045B9
:1029000000626564002C2073797374656D207374A4
:102910006F7070656421204865617465725F494419
:102920003A20004572723A54454D502E204DC381D5
:1029300058004D415854454D502074726967676581
:102940007265640043616C656E742E2066616C6C08
:1029500069646F0048656174696E67206661696CBF
:102960006564004572723A54454D502E204D494ED3
:10297000004D494E54454D50207472696767657229
:10298000656400465547412054C389524D4943412F
:1029900000546865726D616C2052756E6177617963
:1029A00000202F002042403A0020403A0020573AB1
:1029B000007C3C3E5E2B3D3F2F5B5D3B2C2A225C26
:1029C0000041425300504C410046616C6C6F2061E5
:1029D0006C20696E69636961722053442F4644001C
:1029E00053442063617264206F6B0A006F70656EE0
:1029F000526F6F74206661696C65640A00766F6C53
:102A0000756D652E696E6974206661696C65640A0E
:102A1000004E6F20534420636172640A00534420C7
:102A2000636172642072656C65617365640A000A93
:102A30004D3234004D3233202573002E0A006F7062
:102A4000656E206661696C65642C2046696C653A28
:102A5000200046696C652073656C65637465640A63
:102A6000002053697A653A200046696C65206F70D2
:102A7000656E65643A2000454E4420535542524FDE
:102A80005554494E450A002220706F730022207071
:102A90006172656E743A2200535542524F55544943
:102AA0004E452043414C4C207461726765743A2254
:102AB00000446573626F7264616D69656E746F2046
:102AC0006465207375626C6C616D6164610045784A
:102AD000636565646564206D617820535542524F8B
:102AE0005554494E452064657074683A00577269C0
:102AF00074696E6720746F2066696C653A20004EB9
:102B00006F74205344207072696E74696E670A0096
:102B10005344207072696E74696E672062797465BF
:102B20002000667265736800646F696E67002066D6
:102B3000696C653A20004E6F7720002F6175746FC5
:102B400025632E67006D61726C696E66772E6F72F9
:102B500067006D61726C696E66772E6F7267003206
:102B60002E312E322E3100322E312E322E310000F7
:102B70006D61726C696E66772E6F7267006D61723F
:102B80006C696E66772E6F72670020322E312E329E
:102B90002E310070012C0190012701B0012201C0EB
:102BA000011D01F00118011002130130020E016035
:102BB00002090190020401C002FF000003FA004074
:102BC00003F5008003F000D003EB002004E6007062
:102BD00004E100E004DC004005D700C005D200405D
:102BE00006CD00D006C8008007C3003008BE00F044
:102BF00008B900C009B400B00AAF00B00BAA00D0F9
:102C00000CA500000EA000500F9B00C010960050B5
:102C100012910000148C00C0158700B0178200B01C
:102C2000197D00D01B7800001E730040206E0090BC
:102C3000226900F024640040275F0090295A00E0D8
:102C40002B5500102E500020304B0010324600E073
:102C500033410090353C001037370070383200A007
:102C6000392D00B03A2800A03B2300603C1E001024
:102C70003D1900903D1400103E0F00703E0A00C048
:102C80003E0500003F0000403FFBFF803FF6FFC0D5
:102C90003FF1FF2020506C616E6E65724275666672
:102CA000657242797465733A20002046726565202A
:102CB0004D656D6F72793A200020436F6D70696CBD
:102CC00065643A2053657020203620323032340A51
:102CD00000204C61737420557064617465643A20FF
:102CE000323032332D30352D3136207C2041757411
:102CF000686F723A20284672656464795F466F7225
:102D000065732D4E69636F6C61735F5661726761A5
:102D1000735F416C6963652C20417267656E7469ED
:102D20006E615F4D4B532D4F7665724C6F726450E0
:102D3000726F290A004D61726C696E20322E312E3D
:102D4000322E310A0020536F66747761726520520B
:102D5000657365740A00205761746368646F672047
:102D600052657365740A002042726F776E206F752A
:102D7000742052657365740A002045787465726E1C
:102D8000616C2052657365740A00506F77657255E7
:102D9000700A0073746172740A00473238004D3152
:102DA000303031006F6B006572726F72207772691C
:102DB00074696E6720746F2066696C650A00446FE1
:102DC0006E6520736176696E672066696C652E0A90
:102DD000004D323900456E6473746F707300255373
:102DE00020256320256320256320256300205A3A8F
:102DF0000020593A0020583A00656E6473746F7071
:102E000073206869743A200000000A0B02090C0D57
:102E10000E0807030401000000000000000000008D
:102E200000000000000000000000000000000000A2
:102E3000000000001211100000000000000000005F
:102E4000000000000000000000000000000024F46A
:102E500004D9201BC40C5C0E9804C4095F026507EA
:102E60007101F405F900FB04B30048048700C103B5
:102E700069005803550003034500BE023A0084026E
:102E8000310053022A002902250004022000E40137
:102E90001C00C8011900AF0117009801140084013B
:102EA0001300710110006101100051010E00430177
:102EB0000D0036010B002B010B0020010B0015014A
:102EC00009000C01090003010800FB000800F300E1
:102ED0000800EB000700E4000600DE000600D80052
:102EE0000600D2000600CC000500C7000500C200A5
:102EF0000500BD000400B9000400B5000400B100E5
:102F00000400AD000400A9000400A5000300A20015
:102F100003009F0004009B0003009800030095003D
:102F2000020093000300900003008D0002008B005C
:102F30000300880002008600020084000300810074
:102F400002007F0002007D0002007B000200790089
:102F50000200770001007600020074000200720097
:102F60000100710002006F0002006D0001006C00A2
:102F700002006A00010069000200670001006600AB
:102F800001006500010064000200620001006100B0
:102F90000100600001005F0002005D0001005C00B4
:102FA00001005B0001005A000100590001005800B7
:102FB00001005700010056000100550001005400B7
:102FC00001005300000053000100520001005100B5
:102FD0000100500001004F0001004E0000004E00B3
:102FE00001004D0001004C0001004B0000004B00AF
:102FF00001004A00010049000100480000004800AB
:1030000001004700010046000000460001004500A5
:10301000000045000100440001004300000043009F
:103020000100420000004200010041000000410098
:103030000100400001003F0000003F0001003E0091
:1030400000003E0001003D0000003D0001003C008A
:1030500000003C0000003C0001003B0000003B0081
:1030600001003A0000003A00010039000000390078
:10307000010038000000380000003800010037006F
:103080000000370001003600000036000000360066
:10309000010035000000350000003500010034005B
:1030A0000000340000003400010033000000330051
:1030B0000000330001003200000032000000320046
:1030C000010031000000310000003100010030003B
:1030D000000030000000300001002F0000002F0031
:1030E00000002F0000002F0001002E0000002E0025
:1030F00000002E0001002D0000002D0000002D001A
:1031000000002D0001002C0000002C0000002C000D
:1031100000002C0001002B0000002B0000002B0001
:1031200000002B0001002A0000002A0000002A00F5
:1031300000002A00010029000000290000002900E9
:1031400000002900000029000100280000002800DC
:1031500000002800000028000000280001002700CF
:1031600000002700000027000000270000002700C3
:1031700001002600000026000000260000002600B6
:1031800000002600010025000000250000002500A9
:10319000000025000000250000002500010024009B
:1031A000000024000000240000002400000024008F
:1031B0000100230000002300000023000000230082
:1031C0000000230000002300000023000100220073
:1031D0000000220000002200000022000000220067
:1031E0000000220001002100000021000000210059
:1031F000000021000000210000002100000021004B
:10320000010020000000200000002000000020003D
:10321000000020000000200000002000000020002E
:1032200001001F0000001F0000001F0000001F0021
:1032300000001F0000001F0000001F0001001E0012
:1032400000001E0000001E0000001E00000024F40C
:10325000D43050C38E20C2A24017828B7011127AD4
:10326000910D816CD90AA861E108C75866076151C0
:1032700043061E4B5D05C145A7041A411104093DD3
:103280009803713931034036DB0265339102D43043
:103290005402802E1D02632CEE01752AC501B02850
:1032A000A001102781018F2564012B244B01E0220E
:1032B0003401AC211F018D200D01801FFC00841EF4
:1032C000ED00971DDF00B81CD200E61BC600201BD6
:1032D000BC00641AB200B219A8000A19A0006A184A
:1032E0009900D117910040178B00B5168400311654
:1032F0007E00B31579003A157300C7146F00581497
:103300006A00EE1366008813630025135E00C7127F
:103310005B006C12570015125400C111510070115E
:103320004F0021114B00D61049008D104700461068
:10333000440002104200C00F4000800F3E00420FC8
:103340003C00060F3B00CB0E3800930E37005C0E9E
:103350003500270E3400F30D3200C10D3100900D01
:103360003000600D2E00320D2D00050D2C00D90C03
:103370002B00AE0C2900850C29005C0C2700350CB5
:1033800027000E0C2600E80B2400C40B2400A00B21
:1033900023007D0B23005A0B2100390B2100180B51
:1033A0002000F80A1F00D90A1E00BB0A1E009D0A51
:1033B0001D00800A1D00630A1C00470A1B002C0A1E
:1033C0001B00110A1A00F7091A00DD091900C409C7
:1033D0001900AB091900920917007B09180063094D
:1033E00017004C09160036091600200916000A09B4
:1033F0001500F5081500E0081400CC081400B80802
:103400001400A4081400900813007D0812006B0833
:10341000130058081200460812003408110023084F
:1034200011001208110001081100F0071000E00758
:103430001000D0071000C0071000B0070F00A10750
:10344000100091070E0083070F0074070F00650737
:103450000E0057070E0049070E003B070D002E0710
:103460000E0020070D0013070D0006070D00F906DA
:103470000C00ED060D00E0060C00D4060C00C8069A
:103480000C00BC060C00B0060C00A4060B0099064C
:103490000C008D060B0082060B0077060B006C06F5
:1034A0000B0061060A0057060B004C060A00420694
:1034B0000A0038060A002E060A0024060A001A0628
:1034C0000A001006090007060A00FD050900F405B8
:1034D0000900EB050900E2050900D9050900D0053E
:1034E0000900C7050900BE050900B5050800AD05BE
:1034F0000800A50509009C050800940508008C0536
:103500000800840508007C050800740508006C05A7
:103510000700650508005D050700560508004E0513
:10352000070047050700400508003805070031057A
:1035300007002A050700230507001C0506001605DD
:1035400007000F0507000805060002050700FB0439
:103550000600F5040700EE040600E8040600E20495
:103560000700DB040600D5040600CF040600C904EA
:103570000600C3040600BD040600B7040600B1043B
:103580000500AC040600A6040600A00405009B0488
:10359000060095040500900406008A0405008504D1
:1035A0000500800406007A04050075040500700417
:1035B00005006B04050066040500610405005C0459
:1035C000050057040500520405004D040500480499
:1035D0000500430405003E0404003A0405003504D8
:1035E0000500300404002C04050027040400230413
:1035F00005001E0404001A0404001604050011044A
:1036000004000D040400090405000404040000047F
:103610000400FC030400F8030400F4030400F003B6
:103620000400EC030400E8030400E4030400E003E6
:103630000400DC030400D8030400D4030400D00316
:103640000400CC030400C8030300C50303005D2E7F
:103650000000CC22000037170000F30D0000C00767
:1036600000001A0400001D020000120100004D6F4E
:1036700076657220246D6D00302E303235004D6F2E
:1036800076657220302E316D6D004D6F766572203B
:10369000316D6D004D6F7665722031306D6D004D6E
:1036A0006F76657220656A6573004578747275730C
:1036B0006F72202A004D6F766572204000C529C1C7
:1036C0002943616D626961722066696C616D656E26
:1036D000746F004465736361726761722066696C20
:1036E000616D656E746F0043617267617220666917
:1036F0006C616D656E746F0050726563616C2E2035
:103700006D616E75616C0050726563616C2E202472
:1037100000417472C3A17300496D7072696D2E20EF
:1037200064657364652053442F4644002000000004
:103730002200250028002B002E0031003400020159
:103740000000050108010B010000210024002700F2
:103750002A002D00300033000101000004010701A0
:103760000A01050505050705080808080202020206
:103770000A0A08080404040401010101010101010D
:103780000303030303030303040707070C0C0C0CD8
:103790000C0C0C0C020202020606060606060606C1
:1037A0000B0B0B0B0B0B0B0B01021020200808104E
:1037B00020401020408002010201080402010102A1
:1037C000040810204080804020100804020180047A
:1037D00002018040201008040201080402010102D5
:1037E00004081020408001020408102040802000BE
:1037F00020002000010101290A005D005B002C204F
:10380000002C20002E2E2E2800646F5F686F6D69DB
:103810006E675F6D6F76650043616E6E6F74206FCB
:1038200070656E207375626469722000496E7365FD
:1038300072742066696C616D656E7420616E6420BF
:10384000707265737320627574746F6E0A00220A59
:1038500000556E6B6E6F776E20636F6D6D616E6479
:103860003A202200204500205A0020590020204DF7
:10387000393220580053746570732070657220755A
:103880006E69740020746F6F206C6F6E67206578AE
:1038900074727573696F6E2070726576656E74658B
:1038A000640A0020636F6C642065787472757369B4
:1038B0006F6E2070726576656E7465640A004F7273
:1038C0006967656E202573205072696D2E00486F00
:1038D0006D652025732046697273740020453A0097
:1038E000205A3A0020593A00583A006F6B0A0052A9
:1038F0006573656E643A2000434650203820534D6E
:103900004154412056312E30204C69737461004976
:103910006D7072696D69656E646F2E2E2E00496D33
:103920007072657369C3B36E2050617573616461B1
:103930000000AE00D00011241FBECFEFD1E2DEBFE9
:10394000CDBF00E00CBF84B780935F1514BE0FB6E7
:10395000F894A8958091600088618093600010922F
:1039600060000FBE14E0A0E0B2E0E4E4F7E802E09B
:103970000BBF02C007900D92A430B107D9F725E123
:10398000A4E0B4E001C01D92AF35B207E1F71CE13D
:10399000CAE9DCE100E006C021970109802FFE01A1
:1039A0000F940340C939D10780E00807A9F70F94A5
:1039B000282F0D9491430C94000081E08093AF0771
:1039C000089582E08093AF0708958F929F92AF92FF
:1039D000BF92CF92DF92EF92FF92CF936B017C0167
:1039E00020E030E0A9010F948C3B87FD9FC06DEB78
:1039F00077E386E095E3A70196010F940C406B01F5
:103A00007C0120E030E040E251E40F94F13B20E003
:103A100030E048EC52E40F94F13B4B015C0120E0B4
:103A200030E0A901C701B6010F948C3B20E030E0E3
:103A300040EA50E487FF04C020E030E040EA50EC68
:103A4000C501B4010F940C4020E030E040E251E4A5
:103A50000F94E8400F9450416B017C018BE2F7FE1C
:103A600009C0F094E094D094C094C11CD11CE11C16
:103A7000F11C8DE280933405C701B60120E137E2E5
:103A800040E050E00F94883F8AE0882E912CA12CD2
:103A9000B12CCA01B901A50194010F94883F605D62
:103AA00060933505C701B60128EE33E040E050E0F1
:103AB0000F94883FCA01B901A50194010F94883F72
:103AC000605D60933605C701B60124E630E040E052
:103AD00050E00F94883FCA01B901A50194010F94E9
:103AE000883F605D609337058EE280933805C7019B
:103AF000B601A50194010F94883FC62FCA01B901F0
:103B0000A50194010F94883F605D60933905C05D05
:103B1000C0933A0584E395E0CF91FF90EF90DF905A
:103B2000CF90BF90AF909F908F9008956DEB77E30B
:103B300086E095EB60CF8F929F92AF92BF92CF922B
:103B4000DF92EF92FF92CF936B017C0120E030E097
:103B5000A9010F948C3B87FD93C06DEB77E386E062
:103B600095E3A70196010F940C406B017C0120E0C6
:103B700030E040E251E40F94F13B20E030E04AE7CE
:103B800054E40F94F13B4B015C0120E030E0A901CB
:103B9000C701B6010F948C3B20E030E040EA50E4CE
:103BA00087FF04C020E030E040EA50ECC501B401DA
:103BB0000F940C4020E030E040E251E40F94E840E4
:103BC0000F9450416B017C01C114D104E104F10454
:103BD00009F45BC0F7FE59C0F094E094D094C0940F
:103BE000C11CD11CE11CF11C8DE280933505C7017D
:103BF000B60128EE33E040E050E00F94883F8AE0C1
:103C0000882E912CA12CB12CCA01B901A5019401D7
:103C10000F94883F605D609336058EE28093370590
:103C2000C701B60124E630E040E050E00F94883F41
:103C3000CA01B901A50194010F94883F605D6093AA
:103C40003805C701B601A50194010F94883FC62F1E
:103C5000CA01B901A50194010F94883F605D60938A
:103C60003905C05DC0933A0585E395E0CF91FF909B
:103C7000EF90DF90CF90BF90AF909F908F9008957E
:103C80006DEB77E386E095EB6CCF80E2AECFCF9320
:103C9000DF93EC01642F70E090E080E00F94923BA2
:103CA00029EC38EC48EC5EE30F94E84020E030E08B
:103CB00040E05FE30F940C400F9455416883DF911F
:103CC000CF910895E091710786E0E802F001112498
:103CD000EE5AF84F8091740790E09583848308959D
:103CE0008F929F92AF92BF92CF92DF92EF92FF920C
:103CF000CF936B017C0120E030E0A9010F948C3B55
:103D000087FDD6C06DEB77E386E095E3A7019601CA
:103D10000F940C406B017C0120E030E0A9010F946E
:103D20008C3B87FFCAC0C701B601905820E030E045
:103D300040E251E40F94F13B20E030E048EC52E4E3
:103D40000F94F13B20E030E040EA50E40F940C4047
:103D500020E030E040E251E40F94E8400F945041FD
:103D60006B017C0160E280E4C81682E4D8068FE033
:103D7000E806F1048CF0C701B60120E432E44FE01C
:103D800050E00F94883FCA01B9012AE030E040E0DA
:103D900050E00F94883F605D6093330560E280EAF5
:103DA000C81686E8D80681E0E806F1048CF0C70161
:103DB000B60120EA36E841E050E00F94883FCA019E
:103DC000B9012AE030E040E050E00F94883F605DA8
:103DD0006093340560E280E1C81687E2D806E1040A
:103DE000F1048CF0C701B60120E137E240E050E079
:103DF0000F94883FCA01B9012AE030E040E050E06A
:103E00000F94883F605D6093350560E288EEC816C8
:103E100083E0D806E104F1048CF0C701B60128EE76
:103E200033E040E050E00F94883FCA01B9012AE036
:103E300030E040E050E00F94883F605D60933605CD
:103E4000C701B60124E630E040E050E00F94883F1F
:103E50008AE0882E912CA12CB12CCA01B901A501B0
:103E600094010F94883F605D609337058EE28093E4
:103E70003805C701B601A50194010F94883FC62FEC
:103E8000CA01B901A50194010F94883F605D609358
:103E90003905C05DC0933A0583E395E0CF91FF906B
:103EA000EF90DF90CF90BF90AF909F908F9008954C
:103EB0006DEB77E386E095EB29CF20E030E040E240
:103EC00051E4C701B60136CFCF93DF93EC01CB01AC
:103ED000BA010F94923B20E030E048EC52E40F949A
:103EE000E8402FE632E143E85AE30F940C40688340
:103EF00079838A839B83DF91CF910895CF93DF935A
:103F0000EC01CB01BA010F94923B20E030E048EC89
:103F100052E40F94E8402FE632E143E85AE30F946D
:103F20000C40688379838A839B83DF91CF910895C6
:103F30000F94923B20E030E048EC52E40F94E840CC
:103F40002FE632E143E85AE30F940C40C9CECF93F9
:103F5000DF93EC01CB01BA010F94923B6883798324
:103F60008A839B83DF91CF910895CF93DF93EC01F8
:103F7000CB01BA010F94923B688379838A839B8338
:103F8000DF91CF910895CF93DF93EC01CB01BA017C
:103F90000F94923B20E030E048EC52E40F94E8406C
:103FA0002FE632E143E85AE30F940C4068837983AB
:103FB0008A839B83DF91CF9108950F94923B20E0F9
:103FC00030E048EC52E40F94E8402FE632E143E859
:103FD0005AE30F940C40F9CCCF93DF93EC01CB0163
:103FE000BA010F94903B2AE037ED43E25DE30F9472
:103FF000E8400F945541688379838A839B83DF91DE
:10400000CF910895CF93DF93EC01CB01BA010F94C8
:10401000923B2AE037ED43E25DE30F94E84068838A
:1040200079838A839B83DF91CF910895CF93DF9328
:10403000EC01CB01BA010F94923B688379838A83A8
:104040009B83DF91CF910895FC01518340830895B4
:10405000CF93DF93EC01CB01BA010F94923B20E0A8
:1040600030E04AE754E40F94E84027E137EB41EDB4
:1040700058E30F940C40688379838A839B83DF9194
:10408000CF9108950F94923B20E030E04AE754E44A
:104090000F94E84027E137EB41ED58E30F940C40D3
:1040A0004ACDFC0184910895FC0180810895AF926E
:1040B000BF92CF92DF92EF92FF920F931F93CF9315
:1040C000DF93EC015B018A01FB01199587FD16C0A6
:1040D000C82ED12CF12CE12C2196F801C082D1827E
:1040E000E282F382CE01DF91CF911F910F91FF9079
:1040F000EF90DF90CF90BF90AF900895982F907E73
:10410000903CA9F48F7190E0B0E0A0E06C017D01DB
:1041100056E0CC0CDD1CEE1CFF1C5A95D1F7CE01ED
:104120000196F50119958F73C82A2296D6CF982F3C
:10413000907F903E11F58F7090E0B0E0A0E06C01B0
:104140007D0136E0CC0CDD1CEE1CFF1C3A95D1F74E
:10415000CE010196F50119958F73C82A46E0CC0C63
:10416000DD1CEE1CFF1C4A95D1F7CE010296F5012D
:1041700019958F73C82A2396B0CF982F987F903FB8
:1041800079F5877090E0B0E0A0E06C017D0186E0F9
:10419000CC0CDD1CEE1CFF1C8A95D1F7CE010196DC
:1041A000F50119958F73C82A96E0CC0CDD1CEE1C26
:1041B000FF1C9A95D1F7CE010296F50119958F73E0
:1041C000C82A26E0CC0CDD1CEE1CFF1C2A95D1F77A
:1041D000CE010396F50119958F73C82A24967DCFD9
:1041E000982F907C903841F4807C803869F4219637
:1041F000CE01F5011995F8CF8E7F8D3F28F02196DD
:10420000CE01F5011995F8CFC12CD12C760165CFDF
:10421000CF93DF93C0914F12D091501281E0CE31F5
:10422000D105E4F020E030E040E05FE360914B1224
:1042300070914C1280914D1290914E120F940C403F
:104240000F9450416C1B7D0B77FF03C071956195F6
:10425000710981E0633071050CF080E0DF91CF914E
:104260000895CF93DF93DB01F9019C919130C1F068
:10427000943080F094509C938830D1F48081918167
:10428000009771F0019791838083480F591FEA01CD
:10429000188206C08C3539F49C5F9C93943041F4AD
:1042A000DF91CF9108958B3339F781E08C93F8CF6C
:1042B00020813181B9016F5F7F4F71836083420F2D
:1042C000531FEA018883808191818F3591056CF7B6
:1042D000E7CF0F931F9381E000910C1410910D1400
:1042E00020910E1430910F1440910814509109142C
:1042F00060910A1470910B140417150726073707ED
:1043000008F480E01F910F91089590E080E00895F7
:1043100020913B04833021F425FD0CC024FD0CC00A
:1043200030E0A90102C0559547958A95E2F7CA0188
:104330008170089581E0089580E008958091560489
:1043400084FD0BC08091580487FD07C090915904EB
:10435000937081E019F480E0089581E008952FEBD7
:10436000280F2A3108F047C0E22FF0E08091560470
:1043700090915704A0915804B091590404C0B69587
:10438000A795979587952A95D2F780FD02C08170F1
:104390000895E45CFB4FE081EE2341F18091B30787
:1043A0009091B407E80FF92FF11D808190ED980FDF
:1043B0009A3030F08E3251F4818180538A3098F4F3
:1043C000F0933804E093370481E008958D3211F0C2
:1043D0008B3249F4818190ED980F9A3088F38E32B8
:1043E00011F48281EACFF0E0E0E0EACF10923804E5
:1043F00010923704E9CF80E00895CF92DF92EF92D8
:10440000FF920F94923B6B017C0120E030E0A90108
:104410000F948C3B2DEB37E346E055E387FF04C058
:104420002DEB37E346E055EBC701B6010F940C4086
:104430006B017C0120E030E0A9010F948C3B20E06F
:1044400030E040E05FE387FF04C020E030E040E080
:104450005FEBC701B6010F940C400F945041CB01A4
:10446000FF90EF90DF90CF900C942EE4CB010C9452
:104470002EE484E00D94CD1883E00D94CD1882E0F5
:104480000D94CD180C9490D682E00C94C6F070E098
:1044900090E080E00F94923B29EC38EC48EC5EE32E
:1044A0000F94E84020E030E040E05FE30F940C40E0
:1044B0000F945541862F0C9442E568E873E182E041
:1044C00090E00C9414FD63E972E084E690E00E94B1
:1044D00014FD70E060E08AE090E00E9414FD6AEB59
:1044E00072E084E690E00C9414FD0E9402DDEBCFB4
:1044F0008111E9CF68E270E080E991E00C9414FD4D
:104500000E94CCC0F5CF0E94A7DEF2CFCF93DF93FD
:1045100000D01F92CDB7DEB70F94903B69837A83AA
:104520008B839C83CE0101960E94DFDF0F900F905A
:104530000F900F90DF91CF9108950F94903B2AE058
:1045400037ED43E25DE30F94E8400F945541DECF31
:10455000CF92DF92EF92FF92CF93DF9300D01F9222
:10456000CDB7DEB76B017C0120E030E0A9010F94EC
:104570008C3B87FD1BC06DEB77E386E095E3A701DD
:1045800096010F940C4069837A838B839C83CE01C0
:1045900001960E94DFDF0F900F900F900F90DF9138
:1045A000CF91FF90EF90DF90CF9008956DEB77E380
:1045B00086E095EBE4CF0F94923B2AE037ED43E29F
:1045C0005DE30F94E840C4CF0F94923BC1CFCF92EC
:1045D000DF92EF92FF92CF93DF9300D01F92CDB77F
:1045E000DEB76B017C0120E030E0A9010F948C3B29
:1045F00087FD1BC06DEB77E386E095E3A70196018D
:104600000F940C4069837A838B839C83CE0101963F
:104610000E9462E00F900F900F900F90DF91CF916A
:10462000FF90EF90DF90CF9008956DEB77E386E0F9
:1046300095EBE4CF0F94923BCACFCF92DF92EF92EB
:10464000FF92CF93DF9300D01F92CDB7DEB70F94C8
:10465000923B20E030E048EC52E40F94E8402FE633
:1046600032E143E85AE30F940C406B017C0120E0F7
:1046700030E0A9010F948C3B2DEB37E346E055E386
:1046800087FF04C02DEB37E346E055EBC701B601C9
:104690000F940C4069837A838B839C83CE010196AF
:1046A0000E945AE10F900F900F900F90DF91CF91E1
:1046B000FF90EF90DF90CF9008950C94D1C40C94AC
:1046C000D1C40C9483C40C9483C40C9483C40C9400
:1046D00083C4CF92DF92EF92FF920F931F930F94B8
:1046E000C51B009168041091690420916A043091FF
:1046F0006B046B017C01C01AD10AE20AF30A97012C
:10470000860137FD11C0209167042095209367042E
:104710006A547C4F8F4F9F4F609368047093690475
:1047200080936A0490936B0481E0909167049111E7
:1047300001C080E01F910F91FF90EF90DF90CF902C
:104740000895CF93DF93C0914F12D09150122097CC
:1047500029F160914B1270914C1280914D12909101
:104760004E120F9450416E5F7F4F24976C177D0758
:10477000ACF470938805609387050F94C51B605A4D
:1047800075418F4F9F4F6093890570938A05809381
:104790008B0590938C05DF91CF9108951092890538
:1047A00010928A0510928B0510928C05F4CFCF924F
:1047B000DF92EF92FF920F931F93CF93DF9300D07E
:1047C00000D01F921F92CDB7DEB78E010F5F1F4F33
:1047D000D80130E020E0FB01E20FF31FE491ED93FC
:1047E0002F5F3F4F28303105B1F7877098E0899FE0
:1047F000B001112460648AED92E10F944B1C83E7B1
:1048000090E00197F1F77801E8E0EE0EF11C8BE9FA
:10481000C82ED12CF80161918F018AED92E10F949D
:104820004F00C6010197F1F7E016F10699F72896B7
:104830000FB6F894DEBF0FBECDBFDF91CF911F91B1
:104840000F91FF90EF90DF90CF900895CF92DF927D
:10485000EF92FF920F931F93CF93DF9300D000D07E
:10486000CDB7DEB78A0146E0469F9001479F300DE5
:104870001124BC01620F731F46E050E0CE01019687
:104880000F94B53AC980DA80EB80FC80F801408152
:104890005181628173818FEF9FEFC416D506E606C2
:1048A000F70640F081E090E04C155D056E057F0550
:1048B00008F080E026960FB6F894DEBF0FBECDBF9D
:1048C000DF91CF911F910F91FF90EF90DF90CF90EC
:1048D00008950F931F93CF93DF93CDB7DEB72E9735
:1048E0000FB6F894DEBF0FBECDBF8B011E861D86AE
:1048F000FC0160817181828193816F8378878987D0
:104900009A872FEF2B87603871058105910538F460
:104910008AED92E10F944F0081E090E02FC09E015C
:10492000235F3F4FAE01495F5F4F69EB70E08EEE52
:1049300093E10F94FF0E97FD2CC08D859E8526E098
:10494000289FB001299F700D112462517C4E46E0D2
:1049500050E0CE0101960F94B53A6D818AED92E157
:104960000F944F0001301105B9F26E816623A1F258
:104970008AED92E10F944F0082E090E02E960FB600
:10498000F894DEBF0FBECDBFDF91CF911F910F9185
:1049900008959E01235F3F4FAE01495F5F4F63E67D
:1049A00070E08CE991E10F94FF0E97FD0BC08D85AF
:1049B0009E8526E0289FB001299F700D1124645622
:1049C0007E4EC5CF6FE3A4CF809137049091380419
:1049D000009731F04AE050E070E060E00D94AD39AE
:1049E00060E070E0CB0108952F923F924F925F926A
:1049F0006F927F928F929F92AF92BF92CF92DF92EF
:104A0000EF92FF920F931F93CF93DF93CDB7DEB753
:104A100067970FB6F894DEBF0FBECDBF2C8B3D8BD2
:104A20004E8B5F8B9F878E876B0186E9282E312CFA
:104A300010E0B101032C000C880B990B0F94923BF2
:104A40002BED3FE049E450E40F94F13B20E030E0EF
:104A500044E353E40F94E8404B015C01111182C020
:104A6000E12CF12C00E01D86EE85FF85819191916E
:104A7000A191B191FF87EE87888B998BAA8BBB8B15
:104A8000C501B4010F94BB422B013C01C501B40127
:104A90000F94E5409701402F5D850F94F13B6983AA
:104AA0007A838B839C839701402F5D85C301B2017C
:104AB0000F94F13B6D837E838F83988788899989D2
:104AC000AA89BB8989879A87AB87BC87CE01019663
:104AD0000E9414D48091F10C9091F20CA091F30CEF
:104AE000B091F40C4091ED0C5091EE0C6091EF0CF4
:104AF0007091F00C8090E90C9090EA0CA090EB0C77
:104B0000B090EC0CF60180829182A282B382448341
:104B100055836683778380879187A287B3871F5FDA
:104B2000FCE32F0E311C8CE0C80ED11C173009F0AD
:104B300080CF67960FB6F894DEBF0FBECDBFDF9172
:104B4000CF911F910F91FF90EF90DF90CF90BF908A
:104B5000AF909F908F907F906F905F904F903F901D
:104B60002F900895EC88FD880E898F898D877CCFE2
:104B70002F923F924F925F926F927F928F929F926D
:104B8000AF92BF92CF92DF92EF92FF920F931F935B
:104B9000CF93DF93CDB7DEB7C65DD1090FB6F894DA
:104BA000DEBF0FBECDBF1C012A013B01C755DF4F41
:104BB0008882C95AD040C655DF4F9882CA5AD04021
:104BC000C555DF4FA882CB5AD040C455DF4FB882BD
:104BD000CC5AD040C355DF4FC882CD5AD040C255C1
:104BE000DF4FD882CE5AD040C155DF4FE882CF5A2E
:104BF000D040C055DF4FF882C05BD040CF54DF4F6C
:104C00000883C15BD040CE54DF4F1883C25BD040D5
:104C1000CD54DF4F2883C35BD040CC54DF4F388363
:104C2000C45BD040C051DF4F88819981AA81BB818C
:104C3000C05FD040C154DF4F88839983AA83BB8370
:104C4000CF5BD040CC50DF4F88819981AA81BB8156
:104C5000C45FD040CD53DF4F88839983AA83BB8341
:104C6000C35CD040C850DF4F88819981AA81BB8145
:104C7000C85FD040C953DF4F88839983AA83BB8321
:104C8000C75CD040D1018D919D910D90BC91A02D1C
:104C9000C554DF4F88839983AA83BB83CB5BD04005
:104CA000AB019201BE016F5F7F4FC1019DDEC45118
:104CB000DF4F288139814A815B81CC5ED040609191
:104CC0006E0570916F0580917005909171050F943C
:104CD0000C4060936E0570936F0580937005909300
:104CE0007105C154DF4F288139814A815B81CF5BD7
:104CF000D04060915E0570915F0580916005909154
:104D000061050F940C4060935E0570935F0580937E
:104D1000600590936105CD53DF4F288139814A8129
:104D20005B81C35CD04060916205709163058091A6
:104D30006405909165050F940C4060936205709333
:104D400063058093640590936505C953DF4F2881FF
:104D500039814A815B81C75CD04060916605709162
:104D6000670580916805909169050F940C406093E8
:104D700066057093670580936805909369050E94A6
:104D800090D6FE01EB5AFF4FCB54DF4FF983E883F7
:104D9000C55BD040A3019201BF01C10125DEC7550B
:104DA000DF4F88819981AA81BB81C95AD040C954FB
:104DB000DF4F88839983AA83BB83C75BD040C355E9
:104DC000DF4F88819981AA81BB81CD5AD040C553DC
:104DD000DF4F88839983AA83BB83CB5CD040CF54B9
:104DE000DF4F88819981AA81BB81C15BD040C153CB
:104DF000DF4F88839983AA83BB83CF5CD040DE01D9
:104E0000AB5ABF4F7D018E010F5F1F4FF701248109
:104E1000358146815781C553DF4F688179818A8109
:104E20009B81CB5CD0400F940C404B015C01D701BF
:104E300018962D913D914D915C911B97C153DF4F79
:104E4000688179818A819B81CF5CD0400F940C402E
:104E5000CD52DF4F688379838A839B83C35DD040C3
:104E6000F7012081318142815381C954DF4F68812C
:104E700079818A819B81C75BD0400F940C409B0154
:104E8000AC01D8016D917D918D919C910F940B4057
:104E9000F8016083718382839383A5019401648107
:104EA0007581868197810F940B40D80114966D937C
:104EB0007D938D939C931797CD52DF4F2881398135
:104EC0004A815B81C35DD04018966D917D918D9133
:104ED0009C911B970F940B40F80160877187828724
:104EE0009387FCE0EF0EF11C045F1F4FCB54DF4FA4
:104EF00088819981C55BD0400817190709F086CFD2
:104F000020916E0530916F054091700550917105AB
:104F1000C301B2010F94E8406B017C0120E030E056
:104F2000A9010F94F13B20E030E040E85FE30F94EB
:104F30000C4020E030E040E450E40F94E8404B01A6
:104F40005C0129813A814B815C810F94F13B2B01FB
:104F50003C012D813E814F815885C501B4010F94DC
:104F6000F13B9B01AC01C301B2010F940C402B013A
:104F70003C0129853A854B855C85C501B4010F94B8
:104F8000F13B9B01AC01C301B2010F940C40D10174
:104F90006D937D938D939C931397A7019601C70101
:104FA000B6010F940C4020E030E040E85FE30F943E
:104FB0000C4020E030E040E450E40F94E840C95455
:104FC000DF4F688379838A839B83C75BD040A701C7
:104FD000960160E070E080E89FE30F940B4020E0D2
:104FE00030E040E450E40F94E8404B015C012D8533
:104FF0003E854F855889C954DF4F688179818A8100
:105000009B81C75BD0400F94F13B2B013C01298968
:105010003A894B895C89C501B4010F94F13B9B012E
:10502000AC01C301B2010F940C402B013C012D894E
:105030003E894F89588DC501B4010F94F13B9B0106
:10504000AC01C301B2010F940C40F101648375837C
:10505000868397832DA13EA14FA158A5C501B40118
:105060000F94F13B2B013C0129A53AA54BA55CA56A
:10507000C954DF4F688179818A819B81C75BD040A9
:105080000F94F13B9B01AC01C301B2010F940C40A2
:105090002B013C012DA53EA54FA558A9C501B40182
:1050A0000F94F13B9B01AC01C301B2010F940C4082
:1050B000D1011C966D937D938D939C931F972196A0
:1050C0002CAD3DAD4EAD5FAD2197C501B4010F9440
:1050D000F13B2B013C0125962CAD3DAD4EAD5FADB6
:1050E0002597C501B4010F94F13B9B01AC01C301AD
:1050F000B2010F940C404B015C0129962CAD3DADE3
:105100004EAD5FAD2997C954DF4F688179818A819F
:105110009B81C75BD0400F94F13B9B01AC01C50163
:10512000B4010F940C40F101648B758B868B978BC7
:1051300020E030E040E050ECC701B6010F94F13BB5
:1051400020E030E040E85FE30F940C4020E030E0E6
:1051500040E450E40F94E8404B015C0120E030E073
:1051600040E85FE3C701B6010F940C4020E030E057
:1051700040E450E40F94E8406B017C0129A93AA96E
:105180004BA95CA9C501B4010F94F13B2B013C0173
:105190002DA93EA94FA958ADC701B6010F94F13B07
:1051A0009B01AC01C301B2010F940C402B013C01E7
:1051B00029AD3AAD4BAD5CADC701B6010F94F13BE3
:1051C0009B01AC01C301B2010F940C40D101509678
:1051D0006D937D938D939C9353972D962CAD3DAD00
:1051E0004EAD5FAD2D97C701B6010F94F13B2B017A
:1051F0003C0161962CAD3DAD4EAD5FAD6197C501F3
:10520000B4010F94F13B9B01AC01C301B2010F94B7
:105210000C402B013C0165962CAD3DAD4EAD5FAD14
:105220006597C701B6010F94F13B9B01AC01C30127
:10523000B2010F940C40F101608F718F828F938FB8
:10524000298D3A8D4B8D5C8DC701B6010F94F13BD2
:105250002B013C012D8D3E8D4F8D58A1C701B6010C
:105260000F94F13B9B01AC01C301B2010F940C40C0
:105270006B017C0129A13AA14BA15CA1C501B4013C
:105280000F94F13B9B01AC01C701B6010F940C4098
:10529000D10118966D937D938D939C931B9771010B
:1052A0006101B8E1CB0ED11CC554DF4F2881398193
:1052B0004A815B81CB5BD040F10160817181828149
:1052C00093810F940B409B01AC01D70114966D9113
:1052D0007D918D919C9117970F940B40F7016483FA
:1052E000758386839783F4E0EF0EF11CCE14DF0400
:1052F000D9F6C554DF4F88819981AA81BB81CB5BE8
:10530000D040F10180839183A283B383C451DF4FE6
:10531000288139814A815B81CC5ED04060916E05E5
:1053200070916F0580917005909171050F940B40FD
:1053300060936E0570936F0580937005909371056F
:10534000C154DF4F288139814A815B81CF5BD040D6
:1053500060915E0570915F05809160059091610597
:105360000F940B4060935E0570935F05809360051A
:1053700090936105CD53DF4F288139814A815B814C
:10538000C35CD040609162057091630580916405B3
:10539000909165050F940B406093620570936305CF
:1053A0008093640590936505C953DF4F2881398147
:1053B0004A815B81C75CD04060916605709167054A
:1053C00080916805909169050F940B406093660584
:1053D0007093670580936805909369050E9490D645
:1053E000CA52DF4F0FB6F894DEBF0FBECDBFDF91BC
:1053F000CF911F910F91FF90EF90DF90CF90BF90D2
:10540000AF909F908F907F906F905F904F903F9064
:105410002F9008958091370490913804009731F0CF
:105420004AE050E070E060E00D94823860E070E0A7
:10543000CB010895EFDF97FD0AC0ECDF6F3F7105E8
:105440008105910509F02CF4E5DF862F089580E0B1
:1054500008958FEF08958091370490913804892B37
:1054600039F0E8DF91E0811101C090E0892F0895C3
:1054700091E0FCCFCFDFCB010895EF92FF920F9325
:105480001F93CF93DF9300D000D000D01F921F92C4
:10549000CDB7DEB77C0120917207422F022E000C9F
:1054A000550B80917307833099F1843051F184EA70
:1054B0009CE15F932F939F938F938E010F5F1F4FFC
:1054C0001F930F930F94253BC7010E945FE74FE3A3
:1054D00050E0B8018FE097E00F9477430F900F9062
:1054E0000F900F900F900F902B960FB6F894DEBF91
:1054F0000FBECDBFDF91CF911F910F91FF90EF9025
:10550000089580EB9CE127FDD4CF8BE99CE1D1CFBE
:1055100089EB9CE1CECF80917B1290917C12ADCF34
:10552000E091710786E0E802F0011124EE5AF84F8D
:1055300080819181A2CF382F81E08093190210924F
:105540007C0780916B0790916C07A0916D07B091DB
:105550006E07B7FF08C010926B0710926C0710928D
:105560006D0710926E0720916B0720936F071092C2
:105570006907809164071816ECF4082E000C990B4B
:10558000831B9109022E000C330B2817390794F066
:1055900097FF02C090E080E080936F07092E000C17
:1055A000AA0BBB0B80936B0790936C07A0936D07BE
:1055B000B0936E0780916F076623A9F090917007F2
:1055C000891714F48093700720917007022E000C45
:1055D000330B2D5F3F4F482F082E000C550B24171F
:1055E00035071CF48350809370070895E0912005DF
:1055F000E63028F581E08E0F8093200540916B07FF
:1056000050916C0760916D0770916E072091700743
:105610009091640780917F0739E0E39FF0011124A6
:10562000E652FB4FA091D812B091D912B183A0835A
:105630004283538364837583268397838087089589
:105640002F923F924F925F926F927F928F929F9292
:10565000AF92BF92CF92DF92EF92FF920F931F9380
:10566000CF93DF9300D000D0CDB7DEB71C017A8393
:1056700069832B833C834D835E832701380181E05E
:1056800080936907B3DF83E08093570230921E0551
:1056900020921D0589819A8190931C0580931B059A
:1056A0008B819C81AD81BE818093170590931805F5
:1056B000A0931905B0931A05409213055092140552
:1056C0006092150570921605F12CE12CC0926B07C3
:1056D000D0926C07E0926D07F0926E07B092D912EB
:1056E000A092D81290921205809211058C8D809311
:1056F000100526960FB6F894DEBF0FBECDBFDF9122
:10570000CF911F910F91FF90EF90DF90CF90BF90BE
:10571000AF909F908F907F906F905F904F903F9051
:105720002F900895CF93DF93CDB7DEB78E81282FCA
:10573000082E000C330B9091D9049217130609F030
:105740007CF48093D9049E01275F3F4F4F81588599
:1057500060E570E088E894E00F94543B0F94D11B0F
:10576000DF91CF9108950F931F93CF93DF938C0117
:105770006F3F19F41092D90460E02091D904862F6C
:10578000062E000C990B2817190609F024F56093D2
:10579000D904C8010F94DB3A800F911FEC01C01BA4
:1057A000D10BC135D1053CF00197FC012491207C3F
:1057B0002038D1F3F3CFDD27AE01B80188E894E0BB
:1057C0000F94FC3AC857DB4F1882DF91CF911F919D
:1057D0000F910D94D11BDF91CF911F910F910895DF
:1057E000CF93DF932091D90421111EC0FC010190B9
:1057F0000020E9F73197EF01C81BD90BC135D1055E
:105800002CF02291207C2038E1F3F5CFBC01DD277C
:10581000AE0188E894E00F947743C857DB4F1882B5
:10582000DF91CF910D94D11BDF91CF9108950F930C
:105830001F930F94C51B009184041091850420913F
:10584000860430918704601B710B820B930B97FDCC
:105850000CC086B186FB882780F991E08927349BAC
:105860008260329B84608093830480918304817082
:105870009091830491FD826090918204981749F081
:10588000813029F148F0823089F08330A1F0809393
:1058900082041F910F910895913089F09230B9F7E9
:1058A0009091810420911902921B0EC0992339F026
:1058B0009330B1F3ECCF913099F3923041F790915E
:1058C000810420911902920F90938104E0CF9923D3
:1058D00039F39330E1F6F3CFCF92DF92EF92FF925C
:1058E000CF93C82F0F94C51B6B017C0124EA30E7CE
:1058F0004DE75FE360911A0270911B0280911C02D8
:1059000090911D020F948C3B87FD18C08AEF90E0A8
:10591000A0E0B0E08C0D9D1DAE1DBF1D80937104F5
:1059200090937204A0937304B0937404C0930C0218
:10593000CF91FF90EF90DF90CF90089580E090E0BE
:10594000DC01E8CFFC0180E0309749F09491992385
:1059500031F0907C903809F08F5F3196F7CF089541
:10596000009751F0FC0180E09191992331F0907CF7
:105970009038D1F38F5FF8CF80E0089520E030E0D9
:1059800040E05FE360917712709178128091791214
:1059900090917A120F940C400F945041CB010895CE
:1059A000CF93C82F823071F4C4E0C15008F443C0D3
:1059B00088E0C89FB00111246456774E8C2F0E9456
:1059C000D723F3CF64E978E180E00E94D7236CE825
:1059D00078E181E00E94D72364E878E182E00E94C8
:1059E000D7236CE778E186E00E94D72364E778E16B
:1059F00087E00E94D723C13081F46CE678E185E02E
:105A00000E94D72364E678E184E00E94D7236CE506
:105A100078E183E0CF910C94D72364E578E183E0CB
:105A20000E94D7236CE478E184E00E94D72364E4E9
:105A300078E185E0EFCFCF9108950F931F93522F18
:105A40002091D8123091D91228173907D1F110922C
:105A50002D0520911F0527FD10921F059093D91247
:105A60008093D8128B0130E020E000936B071093F5
:105A70006C0720936D0730936E0740937007509327
:105A800064078855954521F410927F0710922005F0
:105A90008AED92E10F94531C81E02091D81230914D
:105AA000D9122855354509F080E07ADF82E08093ED
:105AB000570281E0809369078FEF8093190210925B
:105AC0002B051F910F9108958AE393E290930E079F
:105AD00080930D0720E040E070E060E082E797E30C
